:10000000F7C0B1C210C10FC10EC10DC10CC10BC1EF
:100010000AC109C108C107C106C105C104C103C1A4
:1000200002C101C100C1FFC0FEC0FDC0FCC0FBC0D9
:10003000FAC0F9C00403090424036B0075007700BB
:10004000610074006100790040006E006900660084
:10005000740079002E0063006F006D001C034700E0
:1000600049004E004700450052002D004D006F0032
:100070006E0061006B006100CA2C472AE627AA25A2
:100080008C238D21AB1FE41D361CA11A2219B91730
:1000900064162215F213D412C511C610D50FF10E35
:1000A0001A0E500D900CDC0B310B900AF8096909FF
:1000B000E2086208EA0778070C07A7064706ED057D
:1000C00098054705FB04B40470043004F403BB0333
:1000D000850353032303F602CB02A3027D025902D8
:1000E00037021702F901DD01C201A90191017A016C
:1000F000650151013E012C011B010B01FC00EE00CA
:10010000E000D400C800BC00B200A8009E0095002A
:100110008D0085007D0076006F00690063005D0042
:10012000580053004E004A00460042003E003A008C
:100130003700340031002E002B0029002600240057
:10014000220020001E001C001B00190018001600D1
:10015000150014001200110010000F000E000D0019
:100160000D000C000B000A000A000900080008003E
:100170000700070006000600120110010000000839
:10018000C016E40501000102000109026500020138
:100190000080320904000000010100000924010070
:1001A0000109000101090401000201030000072404
:1001B000010001410006240201010006240202029E
:1001C00000092403010301020100092403020401C0
:1001D0000101000905010308000A000005250101CD
:1001E000010905810308000A00000525010103003B
:1001F00011241FBECFEFD4E0DEBFCDBF12E0A0E0E0
:10020000B1E0ECE9FCE102C005900D92A238B10723
:10021000D9F713E0A2E8B2E001C01D92A83EB107F1
:10022000E1F766DB39CDECCEE9E6F0E08081836072
:100230008083E89A8BE4809357038AE58093560382
:1002400008951F93DC01162F809156038E31E9F03B
:100250008091560384FF07C08091570398E889274F
:100260008093570303C08AE580935603912FE8E5F6
:10027000F3E08D91819391501916DCF388E593E0BA
:10028000612F5AD11C5F109356031F9108951F933D
:10029000CF93DF9360916703635067FDCBC080917C
:1002A0006403CCE0D0E0C81BD109C559DC4F809174
:1002B0006303803118F4CE01CBDCBAC08D3209F073
:1002C000A7C0683009F0B4C083EC80934B038AE583
:1002D00080930001109282029881892F807621F00C
:1002E000CE01D2D2282F81C02A813C8110925403A2
:1002F0008981882381F49F71923049F4313839F42F
:10030000809156038E3119F481E08093540310924A
:10031000550322E063C0813011F0833089F4222339
:1003200009F05BC0313809F058C0813011F08EE11E
:1003300001C08AE5809356038BE4809357034DC038
:10034000853019F42093680348C0863079F58B8195
:10035000813011F0823021F4CE0182D2282F22C0C8
:100360008330F9F48A81882341F484E390E0909308
:1003700066038093650324E015C0813041F488E36F
:1003800090E0909366038093650324E20BC0823073
:1003900041F48CE590E090936603809365032CE133
:1003A00001C020E080E4809382021FC0883021F4E5
:1003B00021E08AE693E014C0893019F420936A039F
:1003C00009C08A3011F421E009C08B3031F48BE48C
:1003D000809357038AE58093560320E084E593E0F9
:1003E000909366038093650309C02F3F39F4888199
:1003F00087FD2E8180E88093820206C08F8188234A
:1004000019F48E81821708F0822F8093010110C0A9
:100410008091820287FF0CC0CE014DD28F3F21F424
:100420008EE18093000104C0882311F01092010135
:10043000109267038091000184FF58C080910101F0
:100440008F3F09F453C0182F893008F018E0811B42
:100450008093010180914B0398E8892780934B0397
:10046000112391F18091820287FF08C08CE493E010
:10047000612F17D2182F893098F526C02091650377
:100480003091660386FF0DC0ACE4B3E080E090E0FD
:10049000F901E80FF91FE491ED9301961817C1F7E0
:1004A00008C0912FD901ECE4F3E08D918193915034
:1004B000E1F71150812F90E01F5F0196820F931F8B
:1004C00090936603809365038CE493E0612F34D0AE
:1004D000612F6C5F6C3041F08FEF8093010104C09D
:1004E0008FEF809301016EE16093000194E189B187
:1004F000857049F49150D9F7109268031092620305
:100500008AE580935603DF91CF911F910895A82F1C
:10051000B92F80E090E041E050EA609530E009C0FA
:100520002D9182279795879510F084279527305E27
:10053000C8F36F5FA8F30895EADF8D939D93089544
:10054000A6E088279927AA9569F00197E1F34899D1
:10055000FCCF489BFECF81E09927A9B1019611F00D
:10056000A570D9F70895CF93CFB7CF93C395489B84
:10057000E9F7489B09C0489B07C0489B05C0489BBA
:1005800003C0489B01C0A6C0DF93C0916403DD2770
:10059000C559DC4F489B02C0DF91EBCF2F930F93DF
:1005A0001F9309B12FEF00FB20F94F933F9319B12F
:1005B0004FEF012700FB21F93BE031C04E7F012FB7
:1005C00019B1216028C0102F4D7F2260000009B1B1
:1005D00029C04B7F2460012F000019B12BC019B135
:1005E000477F28602AC04F7E09B120612CC04F7D13
:1005F00019B120622FC04F7B09B1206432C042275D
:1006000009B149934FEF0000102710FB20F919B1F1
:100610001570C9F1297F91F2012700FB21F909B179
:10062000237F89F2315058F1102710FB22F919B1BC
:10063000277E79F2012700FB23F92F7C81F209B193
:10064000102710FB24F92F7971F200C019B101278E
:1006500000FB25F92F7359F200C009B1102710FBD8
:1006600026F9223040F200C019B1012700FB27F91A
:10067000243028F64F77206819B10000F9CF11E037
:100680001CBB00271CC03B503195C31BD04011E060
:100690001CBB0881033C11F10B3401F12091620372
:1006A0001981110F1213EDCF4A81441F093659F1F8
:1006B0000D3211F0013E29F74F7009F0042F00931D
:1006C00069033F914F911F910F912F91DF91CCB30F
:1006D000C0FD4CCFCF91CFBFCF911895209169032A
:1006E000222379F310916703112369F534306AF1FD
:1006F0003093670320936303109164033BE0311B45
:100700003093640322C0009167030130E4F40AE5EA
:100710004F7049F43091000134FD19C0009300017D
:10072000CBE4D3E018C03091560334FD10C00093E1
:100730005603C7E5D3E00FC02795A8F45150A9F49C
:10074000220F0000F9CF4AE503C042ED01C0432F5C
:10075000C4E1D0E032E01AB11560589A1AB90BB171
:1007600020E415E05F93012756E00BB9279520F4AC
:10077000515021F4220FF9CF012756E000003B5AD7
:100780000BB9D0F2279528F4515029F4220F00001C
:10079000F9CF012756E027950BB920F4515021F4E9
:1007A000220FF9CF012756E0299133230BB921F607
:1007B0000A7F10916803110FC651D0400BB911F098
:1007C0001093620311E01CBB01601AB11A7F402F25
:1007D0004A7F5F9100C000C00BB91AB94BB971CF05
:1007E0000F931F93CF93DF93982F809186028130D0
:1007F00091F5A8EDB1E040E050E0692F70E0C1E074
:10080000D0E0CB01042E02C0959587950A94E2F7BB
:10081000ED91FC91119712969C91129780FD0CC05E
:1008200020818E0102C0000F111F9A95E2F7C801C6
:1008300080958223808309C020818E0102C0000F31
:10084000111F9A95E2F7202B20834F5F5F4F13967D
:1008500047305105B1F6DF91CF911F910F91089567
:10086000FC018381813041F488E791E09093660335
:100870008093650382E108958AE891E0909366038E
:100880008093650385E60895FC01E0818E2F8076D4
:10089000803229F4E7FD03C081E080934A038FEFA3
:1008A0000895FC0110821182128213821482158233
:1008B000168287E0089581E008959091E7038FE123
:1008C000891B0895382F9091E1039F5F292F2F7185
:1008D00091508091E603281771F0892F90E0FC0178
:1008E000EE0FFF1FE80FF91FEF57FC4F30836183B6
:1008F00042832093E10308950895E82FF0E0EE0F7E
:10090000FF1FE858FF4F25913491C90108952091A8
:100910008602253008F043C0982F9C538091FF0138
:100920009817E8F1809100029817C8F56623D9F06E
:10093000892F90E0FC01EE0FFF1FEE0FFF1FE80F65
:10094000F91FE85CFE4FA181B2812C9181E090E01B
:10095000038002C0880F991F0A94E2F7282B2C937A
:1009600084E6848308952330D1F0892F90E0FC0140
:10097000EE0FFF1FEE0FFF1FE80FF91FE85CFE4FA1
:10098000A181B2812C9181E090E0038002C0880FA8
:10099000991F0A94E2F7809582238C93148208951C
:1009A00080918602853098F53091FF0161E070E01A
:1009B00022C0DA01AA0FBB1FAA0FBB1FA40FB51FCD
:1009C000A85CBE4F14968C911497882399F01196C9
:1009D000ED91FC9112972081CB0113960C90139707
:1009E00002C0880F991F0A94E2F7809582238083C2
:1009F00014961C923F5F432F50E08091000290E0DC
:100A00002091FF01821B91094817590794F208951C
:100A100080918602833009F050C08091890288233A
:100A200031F0815080938902882309F45E98809187
:100A3000790290917A02009751F0019790937A028F
:100A400080937902892B19F481E080937C023091A4
:100A5000FF0161E070E025C0DA01AA0FBB1FAA0FF9
:100A6000BB1FA40FB51FA85CBE4F14968C911497A2
:100A70008823B1F0815014968C931497882381F4C5
:100A80001196ED91FC9112972081CB0113960C9059
:100A900002C0880F991F0A94E2F780958223808311
:100AA0003F5F432F50E08091000290E02091FF01D2
:100AB000821B9109481759077CF20895809186029C
:100AC000883009F077C0809180029091810201976F
:100AD0009093810280938002892B09F06BC0F0EF24
:100AE000F4BDE0ECE5BD50EA54BD809172026AE0CD
:100AF000B1D8880F880F825D87BD80917302AAD814
:100B0000880F880F825D88BD16BC84E085BDF09398
:100B1000800010928100E0938200509380008091C9
:100B20007402282F30E025543F4F94D846E0849F2C
:100B3000C0011124280F391F3093890020938800A9
:100B400080917502282F30E025543F4F83D8849F31
:100B5000C0011124280F391F30938B0020938A0085
:100B6000109285001092840083E080938100F093BE
:100B7000B000E093B1005093B000809176026AD843
:100B8000880F880F880F845A8093B3008091770272
:100B900061D8880F880F880F845A8093B400109210
:100BA000B20085E08093B1008EEA91E090938102DB
:100BB000809380020895982F9F7390938702829567
:100BC00086958695817080938802813019F4109201
:100BD0007B02089581E080937B02089590918602C4
:100BE0009430B9F09630A9F0973099F0983089F0A8
:100BF000662311F421980895E82FF0E0EE0FFF1F0F
:100C0000E858FF4F859194919093890080938800D4
:100C1000219A089580918602843039F0863029F037
:100C2000873019F0883009F02198089580E090E02D
:100C300021E0FC01E657FD4F1082FC01E653FD4F19
:100C40002083FC01E65FFC4F108201968034910501
:100C500081F708951F9394B1482F50E0FA01EE0FE9
:100C6000FF1FE40FF51FEE0FFF1FDF01AE5FBE4F4A
:100C70002C91822F8095892384B984B111969C91FF
:100C80001197892B84B985B1822B85B985B190954F
:100C9000982395B997B1EC5FFE4F2081822F809504
:100CA000892387B987B113969C91892B87B988B11D
:100CB000822B88B988B19095982398B910918602B3
:100CC000143019F488B1807F88B99AB1FA01EE0F17
:100CD000FF1FE40FF51FEE0FFF1FEE5FFE4F248195
:100CE000822F809589238AB98AB19581892B8AB907
:100CF0008BB1822B8BB98BB1909598239BB9143013
:100D0000A9F483EA84BD81E085BD17BC18BC81EAE3
:100D10008093800089E08093810010928900109276
:100D2000880010928B0010928A0036C01830D9F4D7
:100D300080EA84BD15BC17BC18BC8093800010925B
:100D40008100109289001092880010928B001092FE
:100D50008A0082EA8093B0001092B1001092B30032
:100D60001092B40019C014BC15BC1092B0001092BF
:100D7000B100173039F080E4809380008BE08093DD
:100D8000810004C0109280001092810010928200B5
:100D9000109289001092880049DF1092FF011230F2
:100DA00021F48FE08093000232C0113021F0133023
:100DB00011F0183031F489E080930002133051F0C3
:100DC0000EC0143061F48BE08093FF018FE08093BC
:100DD000000207C081E08093830287E01BC01430CB
:100DE00029F486E0809383028BE014C0153011F45F
:100DF00081E003C0163029F483E08093830281E10F
:100E000009C0183021F41092830283E003C01092CD
:100E1000830281E080930102C3DD1F9108958F92C8
:100E20009F92AF92BF92CF92DF92EF92FF920F9379
:100E30001F93CF93DF93C090860227E0C21609F478
:100E4000DBC2D090830290900102F090E603F1E0C3
:100E5000AF2EB12CE8EC8E2ECCC20D2D10E0E801A7
:100E6000C657DD4F8881882309F4A0C2815088834A
:100E7000882309F0BDC2D801AA0FBB1FAA0FBB1F50
:100E8000A00FB11FAD57BE4F1196ED91FC91129777
:100E9000808113962C911397A501022E02C0440F56
:100EA000551F0A94E2F790E04823592302C0559554
:100EB00047952A95E2F7E42EF801E653FD4FE081CD
:100EC0006E2F70E0242F30E0CB01817090702817D6
:100ED000390709F48DC2442309F04EC186E0C816D3
:100EE00049F483B1E9B099B1E0E8EE228270E82AD2
:100EF0009071E92A2E2D30E0C9018A259B25482FC3
:100F00004170F6E0CF1611F4E1FC1DC0F801EE0FC0
:100F1000FF1FEE0FFF1FE00FF11FED57FE4F308157
:100F20008091E1038F5F282F2F7181502F1509F4D5
:100F300021C190E0FC01EE0FFF1FE80FF91FEF57F2
:100F4000FC4F108213C1C90180719070E7FC67C02B
:100F5000F801EE0FFF1FEE0FFF1F2091E103892B19
:100F600079F5E00FF11FED57FE4F30812F5F522FC3
:100F70005F7121505F1571F0822F90E0FC01EE0F40
:100F8000FF1FE80FF91FEF57FC4F10823183428398
:100F90005093E1038091E1038F5F282F2F718150DF
:100FA0002F1509F476C090E0FC01EE0FFF1FE80F4B
:100FB000F91FEF57FC4F10823D5F3183335066C0FD
:100FC000E00FF11FED57FE4F30812F5F522F5F7101
:100FD00021505F1571F0822F90E0FC01EE0FFF1F92
:100FE000E80FF91FEF57FC4F108231834283509373
:100FF000E1038091E1038F5F282F2F7181502F151E
:1010000009F4A2C090E0FC01EE0FFF1FE80FF91FEA
:10101000EF57FC4F10823D5F3183335092C0F8018F
:10102000EE0FFF1FEE0FFF1F2091E103892B09F048
:101030005BC0E00FF11FED57FE4F30812F5F522F45
:101040005F7121505F1571F0822F90E0FC01EE0F6F
:10105000FF1FE80FF91FEF57FC4F108231834283C7
:101060005093E1038091E1038F5F282F2F7181500E
:101070002F1579F090E0FC01EE0FFF1FE80FF91F2C
:10108000EF57FC4F10823C5F3183345042832093F2
:10109000E1038091E1038F5F282F2F7181502F157D
:1010A00079F090E0FC01EE0FFF1FE80FF91FEF57FA
:1010B000FC4F1082395F3183375042832093E10324
:1010C0008091E1038F5F282F2F7181502F1509F434
:1010D00051C090E0FC01EE0FFF1FE80FF91FEF5722
:1010E000FC4F1082365F42C0E00FF11FED57FE4FFC
:1010F00030812F5F522F5F7121505F1571F0822F69
:1011000090E0FC01EE0FFF1FE80FF91FEF57FC4FB7
:101110001082318342835093E1038091E1038F5F1A
:10112000282F2F7181502F1579F090E0FC01EE0FE0
:10113000FF1FE80FF91FEF57FC4F10823C5F318310
:10114000345042832093E1038091E1038F5F282F85
:101150002F7181502F1571F090E0FC01EE0FFF1FF1
:10116000E80FF91FEF57FC4F1082395F318342833C
:101170002093E1032D9A15C126E0C21611F4E1FD7A
:1011800014C03C918091E1038F5F282F2F71815013
:101190002F1509F405C190E0FC01EE0FFF1FE80FC9
:1011A000F91FEF57FC4F1082F7C0CB018071907090
:1011B000E7FD59C02091E1033C91892B51F52F5F48
:1011C000422F4F7121504F1571F0822F90E0FC019A
:1011D000EE0FFF1FE80FF91FEF57FC4F108231830E
:1011E00012824093E1038091E1038F5F282F2F71DA
:1011F00081502F1509F468C090E0FC01EE0FFF1F2D
:10120000E80FF91FEF57FC4F10823D5F31833350D9
:1012100058C02F5F422F4F7121504F1571F0822F10
:1012200090E0FC01EE0FFF1FE80FF91FEF57FC4F96
:101230001082318312824093E1038091E1038F5F3A
:10124000282F2F7181502F1509F494C090E0FC01D4
:10125000EE0FFF1FE80FF91FEF57FC4F10823D5FA5
:101260003183335084C02091E1033C91892B09F0F4
:1012700056C02F5F422F4F7121504F1571F0822FB2
:1012800090E0FC01EE0FFF1FE80FF91FEF57FC4F36
:101290001082318312824093E1038091E1038F5FDA
:1012A000282F2F7181502F1579F090E0FC01EE0F5F
:1012B000FF1FE80FF91FEF57FC4F10823C5F31838F
:1012C000345012822093E1038091E1038F5F282F35
:1012D0002F7181502F1579F090E0FC01EE0FFF1F68
:1012E000E80FF91FEF57FC4F1082395F31833750F9
:1012F00012822093E1038091E1038F5F282F2F71E9
:1013000081502F1509F44CC090E0FC01EE0FFF1F37
:10131000E80FF91FEF57FC4F1082365F3DC02F5F7B
:10132000422F4F7121504F1571F0822F90E0FC0138
:10133000EE0FFF1FE80FF91FEF57FC4F10823183AC
:1013400012824093E1038091E1038F5F282F2F7178
:1013500081502F1579F090E0FC01EE0FFF1FE80F90
:10136000F91FEF57FC4F10823C5F318334501282DB
:101370002093E1038091E1038F5F282F2F7181502B
:101380002F1571F090E0FC01EE0FFF1FE80FF91F21
:10139000EF57FC4F1082395F318312822093E103B3
:1013A0002D9806531D4FF801E08222C0F801EE0F80
:1013B000FF1FEE0FFF1FE00FF11FED57FE4FA18142
:1013C000B2818C9143819501042E02C0220F331FFC
:1013D0000A94E2F790E02823392302C03595279537
:1013E0004A95E2F706531D4FF801808182138882E7
:1013F000D394D91408F431CDDF91CF911F910F917F
:10140000FF90EF90DF90CF90BF90AF909F908F9024
:1014100008958F929F92AF92BF92CF92DF92EF92F8
:10142000FF920F931F93CF93DF93809186028730B3
:1014300009F080C180917F02815080937F028823D0
:1014400009F078C1C0908502CC2011F487E002C079
:101450008C2D815090E0FC01A3E0EE0FFF1FAA95B8
:10146000E1F7E81BF90BEE5FFD4FA381B4814C91CE
:1014700021E030E0C901028002C0880F991F0A9460
:10148000E2F7809584238C93A081B1818C910280B6
:1014900002C0220F331F0A94E2F7822B8C936AE377
:1014A00072E0EB01A1E0B0E0EB81FC81208141E042
:1014B00050E0CD010A8002C0880F991F0A94E2F71C
:1014C000809582238083E881F9812081CD010A8083
:1014D00002C0880F991F0A94E2F7282B20832796D1
:1014E00082E0C237D80701F70C2D10E07801F3E055
:1014F000EE0CFF1CFA95E1F7F701E01BF10BEE5F34
:10150000FD4FA381B4812C91CA01028002C0880FD3
:10151000991F0A94E2F7282B2C93A081B1819C910A
:10152000028002C0440F551F0A94E2F7842F809571
:1015300089238C933E2DB090E603E697E1E08E2E52
:10154000912CAA24A394EB81FC8180812881A401A1
:10155000022E02C0440F551F0A94E2F790E0482380
:10156000592302C0559547952A95E2F7D42EA32F0B
:10157000B0E0FD01E653FD4F8081FD01E657FD4FD0
:101580004817D1F180818F5F80838230B0F18091E4
:10159000E1034423A9F48F5F282F2F7181502B156D
:1015A00069F090E0FC01EE0FFF1FE80FF91FEF5705
:1015B000FC4F10823183A2822093E1032D9A14C044
:1015C0008F5F282F2F7181502B1569F090E0FC015F
:1015D000EE0FFF1FE80FF91FEF57FC4F108231830A
:1015E00012822093E1032D98FD01E657FD4F1082F2
:1015F000A653BD4FDC9201C0108227963F5F82E068
:10160000C437D80709F09FCFF801B3E0EE0FFF1FF2
:10161000BA95E1F7E01BF10BEE5FFD4FA381B481BA
:101620004C9121E030E0C901028002C0880F991F6F
:101630000A94E2F7809584238C93A081B1818C91E8
:10164000028002C0220F331F0A94E2F7822B8C9390
:10165000D701A65FBC4F41E050E08C91EB01EB81DC
:10166000FC819A818823C1F02081EA0102C0CC0F5D
:10167000DD1F9A95E2F72C2B2083EB01E881F9819D
:101680002081CA010A8002C0880F991F0A94E2F7DC
:1016900080958223808318C02081EA0102C0CC0F8C
:1016A000DD1F9A95E2F7CE01809582238083EB01BE
:1016B000E881F9812081CA010A8002C0880F991F40
:1016C0000A94E2F7282B20831196695F7F4F82E00E
:1016D0006237780709F0C1CFF801A3E0EE0FFF1FD2
:1016E000AA95E1F7E01BF10BEE5FFD4FA081B18100
:1016F0004C9121E030E0C901028002C0880F991F9F
:101700000A94E2F7482B4C93A381B4818C91028018
:1017100002C0220F331F0A94E2F7822B8C938C2D88
:101720008F5F80938502883010F0109285028AE0E6
:1017300080937F02DF91CF911F910F91FF90EF90E7
:10174000DF90CF90BF90AF909F908F900895E82F3B
:1017500080918602873031F4E03420F4F0E0E65FD7
:10176000FC4F6083089580918602873039F4EAE067
:10177000F3E0119283E0EA34F807D9F708950F9364
:101780001F93182F062F2ADA812F602FC0D8812FA0
:10179000602F26D880918602873039F4103428F4DF
:1017A000E12FF0E0E65FFC4F00831F910F91089559
:1017B0001F93182F60E012DA812F60E0A8D880E034
:1017C00060E00ED880918602873039F4103428F416
:1017D000E12FF0E0E65FFC4F10821F9108951ADAC6
:1017E000DFD880E060E0FCD7BEDF089590E0FC0128
:1017F000EE0FFF1FE80FF91FE351FE4F0190F0813C
:10180000E02D6083089580918602843009F06FC0D6
:1018100080917802813019F580917D0290917E024D
:10182000019790937E0280937D02892B09F05FC01F
:1018300087E880937A008091840287708064809327
:101840007C0080917A00806180937A0080917A0098
:10185000806480937A0082E080937802089580917A
:101860007A0084FF44C0809178009091790097FDC0
:101870003EC0AC0163E0559547956A95E1F720912C
:101880008402E22FF0E0EE51FC4F808190E084175B
:101890009507E1F040839091E1039F5F392F3F71FD
:1018A00091508091E603381789F0892F90E0FC0170
:1018B000EE0FFF1FE80FF91FEF57FC4F81E0808309
:1018C0002A5E2183265142833093E103822F8F5F6A
:1018D00080938402843014F01092840286E990E0B0
:1018E00090937E0280937D0281E080937802089538
:1018F0006F927F928F929F92AF92BF92CF92DF9220
:10190000EF92FF920F931F93DF93CF93CDB7DEB784
:1019100028970FB6F894DEBF0FBECDBF2EE088E14A
:1019200090E00FB6F894A895809360000FBE2093C6
:1019300060008AEF8BB985E08AB91AB8F999FECFB1
:1019400080E090E093D1182F80938602F999FECF22
:1019500081E090E08BD12FD9812F7CD965D4109272
:10196000E7031092E60310924A03789453E0F52EB1
:101970008E010F5F1F4F4BE0642E30EB732E28E07B
:10198000822E90E8992E89E0A82EB0E9BB2EAFE711
:10199000CA2EDD24D394F0E2EF2EA89578D43FDA56
:1019A00037D837DD30DF8AD88091560384FFF5CFF2
:1019B0002091E6036091E103621708F46E2D621B2B
:1019C00029F480914A03882339F4E7CF623020F06C
:1019D000D0924A0362E002C010924A032F9DD001C8
:1019E0001124AF57BC4F30E090E058C08C91882351
:1019F00081F512968C911297E92FF0E09F5F81306C
:101A0000A1F4E00FF11FA082F801E90FF11DB082EF
:101A10009F5FF801E90FF11D11968C9180839F5F04
:101A2000F801E90FF11DC08230C0E00FF11F808284
:101A3000F801E90FF11D90829F5FF801E90FF11D98
:101A400011968C9180839F5FF801E90FF11D108240
:101A50001CC08130D9F4F801E90FF11D6082892F93
:101A60008F5FF801E80FF11D70828F5FF801E80FBA
:101A7000F11D11969C91119790838F5FF801E80FEB
:101A8000F11D12969C919083982F9F5F2F5F2F716D
:101A90002F9DD0011124AF57BC4F3F5F361708F47C
:101AA000A5CF2093E60370E0660F771F660F771FC0
:101AB000C801C7D372CFDF92EF92FF920F931F93AB
:101AC000CF93DF93EC01062FF0E1EF2EF7E2FF2E2C
:101AD000E4E6DE2E28812F703A811B812F3009F039
:101AE0003FC09981983FE9F4F0927A02E09279023E
:101AF00080917B028130A1F580918602833081F54F
:101B000080917C02882361F1815080937C0288233C
:101B100039F58091870280937C025E9AD092890287
:101B20001FC0892F8A5F823070F4809186028330D3
:101B3000B9F45D9A80918802813091F480937B02A0
:101B400080937C020DC09C3F59F4809186028330C3
:101B500039F45D9880918802813011F410927B02F3
:101B6000898190E08F709070892B09F069C0832F74
:101B70008F77293031F02B3069F0283009F05BC0C5
:101B800003C0612F6F7719F413DE2D9854C0F7DD71
:101B90002D9A51C0482F4651463028F59091860223
:101BA0009430B1F490E04A970CF045C0212F30E01A
:101BB000220F331F842F90E0FC01EE0FFF1FE80F70
:101BC000F91FE351FE4F0190F081E02D208333C0D7
:101BD000983089F5E82FF0E0EC31F10564F5E45A2E
:101BE000FD4F108328C08A3771F4812F81508830CF
:101BF00010F5F999FECF80E090E0612F3FD010936F
:101C00008602812F17C08E3759F41123A1F0F9995C
:101C1000FECF81E090E0612F31D0812FCCD70BC077
:101C2000883711F08B3711F4DADD05C0893719F4E4
:101C3000809186020FD8053018F0249604504ACFC0
:101C4000DF91CF911F910F91FF90EF90DF9008955A
:101C500032DF0895991B79E004C0991F961708F0A8
:101C6000961B881F7A95C9F780950895F999FECF3C
:101C700092BD81BDF89A992780B50895262FF999CC
:101C8000FECF1FBA92BD81BD20BD0FB6F894FA9A5F
:0C1C9000F99A0FBE01960895F894FFCF5A
:101C9C005AFF102F003F00FA102F003F00FA102FB0
:101CAC00003F00FA1C23003F9862112E3F0002F8FF
:101CBC001D223F00FA001F203F00FA001F203F00AA
:101CCC00FA00102F003F906A3C280000003D2800CD
:101CDC0001003E280002003F2800030040280004B9
:101CEC000041280005004225000000432B000100A4
:101CFC00442B000600452B0005004625000200473A
:101D0C0025000300482B000300492B0004004A2B3C
:101D1C000007003B2300040049290004004A290065
:101D2C000700482900030046230002004723000354
:101D3C00003B23000400402600040041260005005F
:101D4C004223000000432900010045290005003C06
:101D5C00260000003D260001003E260002003F2622
:101D6C0000030044290006002B00062B000525006B
:101D7C00022500032B00032B00042B000747000057
:101D8C004800008800008A0000B30000B400003C4A
:101D9C0043042B00062A0029002B00052A002900E9
:101DAC002500012400230025000224002300250027
:101DBC0003240023002B00032A0029002B00042AF3
:101DCC000029002B00072A002900280000270026E4
:101DDC0000280001270026002800022700260028E2
:101DEC0000032700260028000427002600280005F1
:101DFC0027002600250000240023002B00012A00C8
:101E0C002900017F017F017F0110270101010001E1
:021E1C00AE0115
:00000001FF
