:10000000ECC0B3C205C104C103C102C101C100C13A
:10001000FFC0FEC0FDC0FCC0FBC0FAC0F9C00403B5
:10002000090424036B00750077006100740061000F
:10003000790040006E0069006600740079002E00AF
:1000400063006F006D001C0350004500500050001D
:10005000450052002D004D006F006E0061006B00E6
:100060006100FF00FF00FF00FF00FF00FF00FF0036
:10007000FF00FF00FF00FF00FF00FF00FF00FF0088
:10008000FF00FF00FF00FF00FF00FF00FF00FF0078
:10009000FF00FF00FF00FF00FF00FF00FF00FF0068
:1000A000FF00FF00FF00FF00FF00FF00FF00FF0058
:1000B000FF00FF00FF00FF00FF00FF00FF00FF0048
:1000C000FF00F500E700DA00CE00C200B700AD0087
:1000D000A3009A009100890081007A0073006C00EF
:1000E000660060005B00560051004C004800440070
:1000F00040003C003900350032002F002D002A005E
:1001000028002500230021001F001D001C001A00EC
:100110001800170016001400130012001100100040
:100120000F000E000D000C000B000B000A00090070
:100130000900080008000700070006000600050087
:100140000500050004000400040003000300030090
:100150000300020002000200020002000100010090
:1001600001001201100100000008C016E4050100A2
:100170000102000109026500020100803209040049
:10018000000001010000092401000109000101092A
:1001900004010002010300000724010001410006E0
:1001A00024020101000624020202000924030103C3
:1001B00001020100092403020401010100090501F3
:1001C0000308000A00000525010101090581030853
:1001D000000A000005250101030011241FBECFE520
:1001E000D2E0DEBFCDBF10E0A0E6B0E0EEEEF8E179
:1001F00002C005900D92AC3CB107D9F711E0ACEC10
:10020000B0E001C01D92A038B107E1F736D96DCB3F
:10021000F7CE85B7836085BF8BB780648BBF8BE4D7
:100220008093EF008AE58093EE0008951F93DC0130
:10023000162F8091EE008E31E9F08091EE0084FF60
:1002400007C08091EF0098E889278093EF0003C0F2
:100250008AE58093EE00912FE0EFF0E08D9181939D
:1002600091501916DCF380EF90E0612F67D11C5F8D
:100270001093EE001F9108951F93CF93DF93609129
:10028000FF00635067FDCBC08091FC00CCE0D0E064
:10029000C81BD109CD5FDE4F8091FB00803118F47F
:1002A000CE01ABDABAC08D3209F0A7C0683009F0D0
:1002B000B4C083EC8093E3008AE5809360001092E1
:1002C000CD009881892F807621F0CE01D2D2282FBF
:1002D00081C02A813C811092EC008981882381F4BD
:1002E0009F71923049F4313839F48091EE008E31AB
:1002F00019F481E08093EC001092ED0022E063C0DD
:10030000813011F0833089F4222309F05BC0313849
:1003100009F058C0813011F08EE101C08AE5809368
:10032000EE008BE48093EF004DC0853019F42093EC
:10033000000148C0863079F58B81813011F0823020
:1003400021F4CE0182D2282F22C08330F9F48A8191
:10035000882341F48EE190E09093FE008093FD00AD
:1003600024E015C0813041F482E290E09093FE00D9
:100370008093FD0024E20BC0823041F486E490E0DB
:100380009093FE008093FD002CE101C020E080E40A
:100390008093CD001FC0883021F421E082E091E0FD
:1003A00014C0893019F42093020109C08A3011F475
:1003B00021E009C08B3031F48BE48093EF008AE5B3
:1003C0008093EE0020E08CEE90E09093FE0080930E
:1003D000FD0009C02F3F39F4888187FD2E8180E818
:1003E0008093CD0006C08F81882319F48E818217F7
:1003F00008F0822F8093610010C08091CD0087FFAC
:100400000CC0CE014DD28F3F21F48EE1809360006D
:1004100004C0882311F0109261001092FF008091B7
:10042000600084FF58C0809161008F3F09F453C081
:10043000182F893008F018E0811B809361008091AB
:10044000E30098E889278093E300112391F18091DC
:10045000CD0087FF08C084EE90E0612F17D2182FDF
:10046000893098F526C02091FD003091FE0086FF6E
:100470000DC0A4EEB0E080E090E0F901E80FF91FB4
:10048000E491ED9301961817C1F708C0912FD90197
:10049000E4EEF0E08D9181939150E1F71150812FBE
:1004A00090E01F5F0196820F931F9093FE00809350
:1004B000FD0084EE90E0612F41D0612F6C5F6C30C5
:1004C00041F08FEF8093610004C08FEF8093610053
:1004D0006EE16093600094E186B3867049F49150B8
:1004E000D9F7109200011092FA008AE58093EE008D
:1004F00010E0992309F411E08091CC00811729F0D4
:10050000112309F47CD91093CC00DF91CF911F9176
:100510000895A82FB92F80E090E041E050EA60955F
:1005200030E009C02D9182279795879510F0842798
:100530009527305EC8F36F5FA8F30895EADF8D93C7
:100540009D930895A6E088279927AA9569F00197B9
:10055000E1F3B199FCCFB19BFECF81E09927A6B31F
:10056000019611F0A670D9F70895CF93CFB7CF9326
:10057000C395B19BE9F7B19B0BC0B19B09C0B19B7F
:1005800007C0B19B05C0B19B03C0B19B01C0D8C0DF
:100590000F92DF93C091FC00DD27CD5FDE4F012E6F
:1005A000B19B03C0DF910F90E6CF2F930F931F9362
:1005B0004F932FEF4F6F06B301FB20F95F933F93EB
:1005C00050E03BE065C016B30126502951FDC895A7
:1005D00056B3012701FB25F92F7306B3B1F050275D
:1005E000102711FB26F906B22230F0F000C016B336
:1005F000012701FB27F90126502906B22430E8F52E
:100600004F77206816B30000F6CF50274F7D206249
:1006100006B2102F000000C006B300265029102794
:1006200011FB26F906B2E2CF4F7B06B3206400C06F
:10063000DACF01265029167006B269F14E7F21608B
:10064000012F16B328C0002650294D7F06B2226024
:10065000102F29C0012650294B7F06B22460012F9C
:100660002DC016B301265029477F2860000006B22E
:100670002EC04F7E06B3206130C0422706B3499397
:1006800000265029102706B24FEF11FB20F9297FD1
:1006900016B379F2167059F10126502906B20127D6
:1006A00001FB21F9237F06B371F200265029315056
:1006B000D0F006B2102711FB22F9277E16B351F2B3
:1006C00001265029012701FB06B223F92F7C49F2AC
:1006D000000006B3102711FB24F90026502906B2AA
:1006E0002F7939F270CF10E41ABF00271CC03B509D
:1006F0003195C31BD04010E41ABF0881033C21F19F
:100700000B3411F12091FA001981110F1213EDCF62
:100710004A81441F093669F10D3211F0013E29F773
:100720004F7009F0042F009301013F915F914F91A9
:100730001F910F912F91DF910F90CAB7C6FD18CF6F
:10074000CF91CFBFCF91189520910101222369F35A
:100750001091FF00112379F534307AF13093FF00C6
:100760002093FB001091FC003BE0311B3093FC0018
:1007700024C00091FF000130F4F40AE54F7049F401
:100780003091600034FD1AC000936000C3EED0E0E9
:1007900019C03091EE0034FD11C00093EE00CFEE91
:1007A000D0E010C0052710E000C021C0052710E0F0
:1007B000C89508BB14C03AE501C032ED032EC0E075
:1007C000D0E032E017B31660C19A08B317BB56E009
:1007D00020E84FEF20FF052708BB279517951C3F02
:1007E00028F700004552B0F720FF0527279508BBE2
:1007F00017951C3FB8F629913A9561F7097F10913A
:100800000001110F08BBC250D04011F01093FA0044
:1008100010E41ABF026017B3197F402F497F54E0DC
:100820005A95F1F708BB17BB48BB7FCF882311F45B
:1008300083E009C0823031F08091D200843011F021
:1008400082E001C080E087B90895FC018381813096
:1008500041F482E691E09093FE008093FD0082E1F6
:10086000089584E791E09093FE008093FD0085E673
:100870000895FC01E0818E2F8076803229F4E7FD17
:1008800003C081E08093E2008FEF0895FC011082A5
:1008900011821282138214821582168287E00895D3
:1008A00081E0089590917F018FE1891B0895A82F21
:1008B000B62F209179012F5F322F3F712150809107
:1008C0007E013817E9F0822F90E063E070E0E5D711
:1008D000FC01E75EFE4FA083822F90E063E070E0B2
:1008E000DCD7FC01E75EFE4FB183822F90E063E02E
:1008F00070E0D3D7FC01E75EFE4F4283309379016D
:1009000008950895E82FF0E0EE0FFF1FEE59FF4F16
:1009100025913491C90108959091D200943008F046
:100920005FC0382F3C538091CE00381708F458C070
:1009300080919C00381708F053C0662341F1832F43
:1009400090E065E070E0A9D7FC01EC58FF4FA18171
:10095000B2812C91832F90E065E070E09ED7FC017E
:10096000EC58FF4F81E090E0038002C0880F991F90
:100970000A94E2F7282B2C93832F90E065E070E037
:100980008CD7FC01EC58FF4F84E6848308959330A4
:1009900039F1832F90E065E070E07FD7FC01EC58DF
:1009A000FF4FA181B2812C91832F90E065E070E030
:1009B00074D7FC01EC58FF4F81E090E0038002C047
:1009C000880F991F0A94E2F7809582238C93832FD6
:1009D00090E065E070E061D7FC01EC58FF4F1482B5
:1009E0000895CF93DF938091D200843088F53091C1
:1009F000CE00C1E0D0E020C0CA0165E070E04DD774
:100A0000DC01AC58BF4F14968C911497882399F051
:100A10001196ED91FC9112972081CE0113960C90C6
:100A2000139702C0880F991F0A94E2F780958223DA
:100A3000808314961C923F5F432F50E080919C006E
:100A400090E02091CE00821B910948175907A4F22B
:100A5000DF91CF910895CF93DF938091D2008330BF
:100A600009F04EC08091D500882331F081508093E9
:100A7000D500882309F4C0988091BD009091BE00F4
:100A8000009751F001979093BE008093BD00892B91
:100A900019F481E08093C0003091CE00C1E0D0E035
:100AA00023C0CA0165E070E0F8D6DC01AC58BF4F46
:100AB00014968C9114978823B1F0815014968C93DE
:100AC0001497882381F41196ED91FC91129720815F
:100AD000CE0113960C9002C0880F991F0A94E2F77A
:100AE0008095822380833F5F432F50E080919C005C
:100AF00090E02091CE00821B9109481759078CF293
:100B0000DF91CF9108952091D200283049F580914E
:100B1000CA009091CB0001979093CB008093CA00BC
:100B2000892BF1F480EC8ABD80E883BF8ABD809177
:100B3000BA008695805C89BD12BE84E083BF10BE7A
:100B400088E38CBD80E28CBD8091BB0081588BBD59
:100B50001FBC20BF80EB94E09093CB008093CA0031
:100B60000895982F9F739093D300829586958695CC
:100B700081708093D400813019F41092BF000895E1
:100B800081E08093BF000895982F8091D200823039
:100B900071F4662311F4B8980895E92FF0E0EE0F90
:100BA000FF1FEE59FF4F8591949189BDB89A089522
:100BB0008091D200823009F4B89808951092D6003E
:100BC00081E08093DA001092DE001092D7008093CB
:100BD000DB001092DF001092D8008093DC001092AE
:100BE000E0001092D9008093DD001092E10008959A
:100BF0001F93382F97B3E82FF0E0EE0FFF1FEE5949
:100C0000FF4F2081822F8095892387BB87B39181F5
:100C1000892B87BB88B3822B88BB88B39095982398
:100C200098BB1091D200143019F488B3877D04C0AA
:100C3000163019F488B3877C88BB323031F482E4F3
:100C40008ABD84E083BF19BC20C0343011F0363037
:100C500051F483E88ABD81E083BF19BC3430B9F414
:100C600080BF80E60BC0383061F482EA8ABD83E041
:100C700083BF19BC18BC87E280BF80E28CBD1BBC5F
:100C800006C082E08ABD84E083BF10BE1CBC96DF34
:100C90001092CE00113011F082E001C084E0809308
:100CA0009C00153011F083E001C080E08093CF00FC
:100CB00084E080939D0095DE1F9108958F929F920E
:100CC000AF92BF92CF92DF92EF92FF920F931F935A
:100CD000CF93DF938091D200823019F0853009F0F4
:100CE000C0C0E090CF0090909D00C0907E0141E098
:100CF000A42EB12C38EC832EB1C00E2D10E0E801EB
:100D0000CA52DF4F8881882309F484C081508883C8
:100D1000882309F0A2C0C80165E070E0BED5DC01FF
:100D2000A857BF4F1196ED91FC91129780811396B1
:100D30002C911397A501022E02C0440F551F0A944F
:100D4000E2F790E04823592302C0559547952A952C
:100D5000E2F7D42EF801E652FF4FF080242F30E066
:100D60008F2D90E0817090702817390709F475C0B5
:100D7000AC9120917901442319F52F5F322F3F71F7
:100D800021503C1509F441C0822F90E063E070E0EF
:100D900084D5FC01E75EFE4F1082822F90E063E075
:100DA00070E07BD5FC01E75EFE4FA183822F90E0CF
:100DB00063E070E072D5FC01E75EFE4F128223C053
:100DC0002F5F322F3F7121503C15F9F0822F90E0B8
:100DD00063E070E062D5FC01E75EFE4F1082822F77
:100DE00090E063E070E059D5FC01E75EFE4FA1831F
:100DF000822F90E063E070E050D5FC01E75EFE4F8B
:100E000081E0F82AF2823093790106521F4FF801EF
:100E1000D08223C0C80165E070E03FD5DC01A8574F
:100E2000BF4F1196ED91FC911297808113964C91D2
:100E30009501042E02C0220F331F0A94E2F790E0BE
:100E40002823392302C0359527954A95E2F70652A3
:100E50001F4FF801808182138882E394E91408F41B
:100E60004CCFDF91CF911F910F91FF90EF90DF90CA
:100E7000CF90BF90AF909F908F9008956F927F9288
:100E80008F929F92AF92BF92CF92DF92EF92FF929A
:100E90000F931F93DF93CF9300D0CDB7DEB7809130
:100EA000D200873009F0E9C18091C9008150809358
:100EB000C900882309F0E1C1C090D100CC2011F411
:100EC00001E002C00C2D0150802F90E067E070E03F
:100ED000E4D4FC01E256FF4F23813481D9014C91C7
:100EE000802F90E067E070E0D8D4FC01E256FF4F1D
:100EF000A1E0B0E0CD01028002C0880F991F0A94E2
:100F0000E2F780958423F9018083802F90E067E0E9
:100F100070E0C3D49C0122563F4FF9010190F0814B
:100F2000E02DFA83E9832081802F90E067E070E074
:100F3000B4D4FC01E256FF4FCD01028002C0880FFD
:100F4000991F0A94E2F7282BE981FA812083E09126
:100F5000AF00F091B0002081CD010090AE0002C042
:100F6000880F991F0A94E2F7809582238083E0918D
:100F7000AC00F091AD002081CD010090AE0002C028
:100F8000880F991F0A94E2F7282B2083E091B6007E
:100F9000F091B7002081CD010090B50002C0880F0C
:100FA000991F0A94E2F7809582238083E091B30031
:100FB000F091B4002081CD010090B50002C0880FEF
:100FC000991F0A94E2F7282B2083EC2CFF24C701F9
:100FD00067E070E062D4BC0162567F4FFB01438141
:100FE0005481FA012081CD01FB01028002C0880FEB
:100FF000991F0A94E2F7282BFA012083FB018081D4
:101000009181FC012081FB01028002C0AA0FBB1F5D
:101010000A94E2F7A095A223FC01A0833701660C95
:10102000771C362DB0907E010EEA10E061E0862E2E
:10103000912CAA24A394D8011396ED91FC911497B6
:1010400080812C91A401022E02C0440F551F0A94E6
:10105000E2F790E04823592302C0559547952A9519
:10106000E2F7D42EA32FB0E0FD01E652FF4F8081BE
:10107000FD01EA52FF4F481709F458C080818F5F85
:101080008083823008F453C020917901442319F5FC
:101090002F5F422F4F7121504B1509F43FC0822F13
:1010A00090E063E070E0F9D3FC01E75EFE4F108250
:1010B000822F90E063E070E0F0D3FC01E75EFE4F2A
:1010C0003183822F90E063E070E0E7D3FC01E75EBC
:1010D000FE4FA28221C02F5F422F4F7121504B152E
:1010E000E9F0822F90E063E070E0D7D3FC01E75E87
:1010F000FE4F1082822F90E063E070E0CED3FC01BF
:10110000E75EFE4F3183822F90E063E070E0C5D34D
:10111000FC01E75EFE4F128240937901FD01EA5225
:10112000FF4F1082A652BF4FDC9201C01082095FB0
:101130001F4F3F5FB0E00C3B1B0709F07CCFC7019E
:1011400067E070E0AAD3FC01E256FF4FA381B481AF
:101150004C9121E030E0C901028002C0880F991F44
:101160000A94E2F7809584238C93A081B1818C91BD
:10117000028002C0220F331F0A94E2F7822B8C9365
:101180005EEDA52E50E0B52EA60CB71CD8015097E9
:1011900041E050E0F50180811396ED91FC911497A8
:1011A00012969C9112978823D1F02081BA0102C037
:1011B000660F771F9A95E2F7262B2083ED91FC911D
:1011C00011972081CA0112960C90129702C0880FC5
:1011D000991F0A94E2F78095822380831AC02081A8
:1011E000BA0102C0660F771F9A95E2F7CB0180958E
:1011F00082238083ED91FC9111972081CA01129680
:101200000C90129702C0880F991F0A94E2F7282BBE
:1012100020830894A11CB11C179670E0AA3BB70765
:1012200009F0B8CFC70167E070E037D3FC01E256A0
:10123000FF4FA081B1814C9121E030E0C9010280D3
:1012400002C0880F991F0A94E2F7482B4C93A381A0
:10125000B4818C91028002C0220F331F0A94E2F7FE
:10126000822B8C938C2D8F5F8093D100823010F075
:101270001092D1008AE08093C9000F900F90CF9117
:10128000DF911F910F91FF90EF90DF90CF90BF9073
:10129000AF909F908F907F906F900895E82F8091EE
:1012A000D200873031F4E43020F4F0E0E252FF4F16
:1012B000608308958091D200873041F41092DE005F
:1012C0001092DF001092E0001092E10008950F9359
:1012D0001F93182F062F58DC812F602F1DDB809164
:1012E000D200873039F4143028F4E12FF0E0E252D4
:1012F000FF4F00831F910F9108951F93182F60E0F7
:1013000043DC812F60E008DB8091D200873039F424
:10131000143028F4E12FF0E0E252FF4F10821F91C9
:1013200008958091D200823009F4B8985ADBC2DF68
:101330000895262F90E063E070E0AFD2FC01ED53FA
:10134000FF4F0190F081E02D208308951F9340917D
:10135000D200443019F0463009F07CC08091BC00C6
:101360008130A9F48091C1009091C20001979093BF
:10137000C2008093C100892B09F06CC087E886B950
:101380008091D00053DA349A369A82E061C0349B5F
:1013900061C084B195B197FD5DC0DC01E3E0B59516
:1013A000A795EA95E1F73091D000E32FF0E0E658F9
:1013B000FE4F808190E08A179B0759F1A08320910E
:1013C00079012F5F122F1F71215080917E01181714
:1013D00001F1822F90E063E070E05FD2FC01E75EF4
:1013E000FE4F81E08083822F90E063E070E055D271
:1013F000FC01E75EFE4F3A5E31833651822F90E06A
:1014000063E070E04AD2FC01E75EFE4FA2831093D6
:101410007901832F8F5F8093D000443019F422E04C
:1014200030E007C0463019F020E030E002C023E091
:1014300030E0992787FD90958217930714F010925A
:10144000D00086E990E09093C2008093C10081E0D3
:101450008093BC001F91089582E090E030D28F3FCE
:1014600009F081BFB99A20E043EB51EFCA0101971F
:10147000F1F72F5F2431D1F708956F927F928F9209
:101480009F92AF92BF92CF92DF92EF92FF920F9313
:101490001F93DF93CF93CDB7DEB728970FB6F8949D
:1014A000DEBF0FBECDBFD8DF2EE088E190E00FB6E3
:1014B000F894A89581BD0FBE21BD89EF88BB86E059
:1014C00087BB17BAE199FECF80E090E0F8D1182FE2
:1014D0008093D200E199FECF81E090E0F0D141DB32
:1014E000812F86DB96D610927F0110927E0110929A
:1014F000E20078948E010F5F1F4F5BE0652E40EB9A
:10150000842E38E0732E20E8922E99E0A92E80E9EF
:10151000B82EBFE7CB2EDD24D394A0E2EA2EA89507
:10152000ABD6CCDB98DAAADC11DFEDDA8091EE00E5
:1015300084FFF5CF30917E0160917901631710F03F
:10154000462F01C04E2D431B29F48091E2008823D1
:1015500039F4E5CF423020F0D092E20042E002C000
:101560001092E200832F90E063E070E096D1DC01FE
:10157000A75EBE4FFF2420E05DC08C91882399F5C3
:1015800012968C911297E22FF0E0922F9F5F81309C
:10159000A1F4E00FF11FA082F801E90FF11DB08264
:1015A0009F5FF801E90FF11D11968C9180839F5F79
:1015B000F801E90FF11DC08231C0E00FF11F708208
:1015C000F801E90FF11D90829F5FF801E90FF11D0D
:1015D00011968C9180839F5FF801E90FF11D1082B5
:1015E000292F2F5F1CC08130D1F4F801E20FF11DCB
:1015F0006082822F8F5FF801E80FF11D80828F5F7C
:10160000F801E80FF11D11969C91119790838F5F5F
:10161000F801E80FF11D12969C9190832C5F3F5FBB
:101620003F71832F90E063E070E037D1DC01A75E6B
:10163000BE4FF394F41608F4A0CF30937E01642FCC
:1016400070E0660F771F660F771FC801EFD567CF71
:10165000DF92EF92FF920F931F93CF93DF93EC01F2
:10166000062FF0E1EF2EF7E2FF2EE4E6DE2E2881D2
:101670002F703A811B812F3009F03FC09981983F2C
:10168000E9F4F092BE00E092BD008091BF0081308D
:10169000A1F58091D200833081F58091C00088232C
:1016A00061F181508093C000882339F58091D30087
:1016B0008093C000C09AD092D5001FC0892F8A5F46
:1016C000823070F48091D2008330B9F4C59A809151
:1016D000D400813091F48093BF008093C0000DC08E
:1016E0009C3F59F48091D200833039F4C5988091A1
:1016F000D400813011F41092BF00898190E08F7086
:101700009070892B09F071C0432F4F77293031F049
:101710002B3069F0283009F063C003C0612F6F7768
:1017200019F4842FEADD5CC0842FD1DD59C0642F09
:101730006651663068F55091D200543019F422E0B9
:1017400030E004C05630C9F421E030E0842F90E04E
:101750004597281739078CF0212F30E0220F331FCF
:10176000862F90E063E070E098D0FC01ED53FF4FCE
:101770000190F081E02D208333C0583089F5E42FAB
:10178000F0E0E831F10564F5EC55FF4F108328C017
:101790004A3771F4812F8150883010F5E199FECFDE
:1017A00080E090E0612F93D01093D200812F17C07A
:1017B0004E3759F41123A1F0E199FECF81E090E07A
:1017C000612F85D0812FCDD90BC0483711F04B3711
:1017D00011F4A7DD05C0493719F48091D20008DA69
:1017E000053018F02496045042CFDF91CF911F911D
:1017F0000F91FF90EF90DF9008952ADF0895DF9218
:10180000EF92FF920F931F93CF93DF9300E0A0E836
:10181000DA2EEE24FF241D2D100F11BF93D6EC01FC
:1018200089E0C433D8070CF0102FD6940894E11C3B
:10183000F11C88E0E816F10411F0012FECCF1150F3
:1018400011BF1F5FE12EFF240894E11CF11C13C09F
:1018500079D69C012453394037FF03C03095219538
:101860003F4F2C173D0714F09E0101C011B781B7FF
:101870008F5F81BFE90181B790E0E816F90644F770
:1018800011BF61B782E090E022D0DF91CF911F912C
:101890000F91FF90EF90DF9008955527002480FF6F
:1018A00002C0060E571F660F771F6115710521F0E4
:1018B00096958795009799F7952F802D0895E19932
:1018C000FECF9FBB8EBBE09A99278DB30895262F3C
:1018D000E199FECF1CBA9FBB8EBB2DBB0FB6F8940F
:0E18E000E29AE19A0FBE01960895F894FFCFA8
:1018EE005AFF390000392019003928113900380102
:1018FE00003928113C380003003D380004003E3802
:10190E000000003F380005003C360003003D360065
:10191E0004003E360000003F360005000204380089
:10192E000037003600380005370036003800033720
:10193E0000360038000437003600007F0110270102
:0C194E000101004900004B000001B00442
:00000001FF
